{
  "_format": "hh-sol-artifact-1",
  "contractName": "Transactions",
  "sourceName": "contracts/Transactions.sol",
  "abi": [
    {
      "anonymous": false,
      "inputs": [
        {
          "indexed": false,
          "internalType": "address",
          "name": "from",
          "type": "address"
        },
        {
          "indexed": false,
          "internalType": "address",
          "name": "receiver",
          "type": "address"
        },
        {
          "indexed": false,
          "internalType": "uint256",
          "name": "amount",
          "type": "uint256"
        },
        {
          "indexed": false,
          "internalType": "string",
          "name": "message",
          "type": "string"
        },
        {
          "indexed": false,
          "internalType": "uint256",
          "name": "timestamp",
          "type": "uint256"
        }
      ],
      "name": "Transfer",
      "type": "event"
    },
    {
      "inputs": [],
      "name": "EPNS_CHANNEL_ADDRESS",
      "outputs": [
        {
          "internalType": "address",
          "name": "",
          "type": "address"
        }
      ],
      "stateMutability": "view",
      "type": "function"
    },
    {
      "inputs": [],
      "name": "EPNS_COMM_ADDRESS",
      "outputs": [
        {
          "internalType": "address",
          "name": "",
          "type": "address"
        }
      ],
      "stateMutability": "view",
      "type": "function"
    },
    {
      "inputs": [
        {
          "internalType": "address payable",
          "name": "receiver",
          "type": "address"
        },
        {
          "internalType": "uint256",
          "name": "amount",
          "type": "uint256"
        },
        {
          "internalType": "string",
          "name": "message",
          "type": "string"
        },
        {
          "internalType": "string",
          "name": "keyword",
          "type": "string"
        }
      ],
      "name": "addToBlockchain",
      "outputs": [],
      "stateMutability": "nonpayable",
      "type": "function"
    },
    {
      "inputs": [],
      "name": "getAllTransactions",
      "outputs": [
        {
          "components": [
            {
              "internalType": "address",
              "name": "sender",
              "type": "address"
            },
            {
              "internalType": "address",
              "name": "receiver",
              "type": "address"
            },
            {
              "internalType": "uint256",
              "name": "amount",
              "type": "uint256"
            },
            {
              "internalType": "string",
              "name": "message",
              "type": "string"
            },
            {
              "internalType": "uint256",
              "name": "timestamp",
              "type": "uint256"
            },
            {
              "internalType": "string",
              "name": "keyword",
              "type": "string"
            }
          ],
          "internalType": "struct Transactions.TransferStruct[]",
          "name": "",
          "type": "tuple[]"
        }
      ],
      "stateMutability": "view",
      "type": "function"
    },
    {
      "inputs": [],
      "name": "getTransactionCount",
      "outputs": [
        {
          "internalType": "uint256",
          "name": "",
          "type": "uint256"
        }
      ],
      "stateMutability": "view",
      "type": "function"
    }
  ],
  "bytecode": "0x608060405273e49ab5380e332ac3456bb33cf588db2770536f27600160006101000a81548173ffffffffffffffffffffffffffffffffffffffff021916908373ffffffffffffffffffffffffffffffffffffffff16021790555073b3971bcef2d791bc4027bbfedfb47319a4aaaaaa600260006101000a81548173ffffffffffffffffffffffffffffffffffffffff021916908373ffffffffffffffffffffffffffffffffffffffff1602179055503480156100ba57600080fd5b5061106f806100ca6000396000f3fe608060405234801561001057600080fd5b50600436106100575760003560e01c806327506f531461005c5780632e7700f01461007a57806348a3b4a414610098578063cc2d7ead146100b6578063d3336203146100d2575b600080fd5b6100646100f0565b6040516100719190610922565b60405180910390f35b610082610333565b60405161008f9190610953565b60405180910390f35b6100a061033c565b6040516100ad919061097d565b60405180910390f35b6100d060048036038101906100cb9190610b4b565b610362565b005b6100da610614565b6040516100e7919061097d565b60405180910390f35b60606003805480602002602001604051908101604052809291908181526020016000905b8282101561032a57838290600052602060002090600602016040518060c00160405290816000820160009054906101000a900473ffffffffffffffffffffffffffffffffffffffff1673ffffffffffffffffffffffffffffffffffffffff1673ffffffffffffffffffffffffffffffffffffffff1681526020016001820160009054906101000a900473ffffffffffffffffffffffffffffffffffffffff1673ffffffffffffffffffffffffffffffffffffffff1673ffffffffffffffffffffffffffffffffffffffff168152602001600282015481526020016003820180546101fd90610c19565b80601f016020809104026020016040519081016040528092919081815260200182805461022990610c19565b80156102765780601f1061024b57610100808354040283529160200191610276565b820191906000526020600020905b81548152906001019060200180831161025957829003601f168201915b505050505081526020016004820154815260200160058201805461029990610c19565b80601f01602080910402602001604051908101604052809291908181526020018280546102c590610c19565b80156103125780601f106102e757610100808354040283529160200191610312565b820191906000526020600020905b8154815290600101906020018083116102f557829003601f168201915b50505050508152505081526020019060010190610114565b50505050905090565b60008054905090565b600260009054906101000a900473ffffffffffffffffffffffffffffffffffffffff1681565b60016000808282546103749190610c7a565b9250508190555060036040518060c001604052803373ffffffffffffffffffffffffffffffffffffffff1681526020018673ffffffffffffffffffffffffffffffffffffffff16815260200185815260200184815260200142815260200183815250908060018154018082558091505060019003906000526020600020906006020160009091909190915060008201518160000160006101000a81548173ffffffffffffffffffffffffffffffffffffffff021916908373ffffffffffffffffffffffffffffffffffffffff16021790555060208201518160010160006101000a81548173ffffffffffffffffffffffffffffffffffffffff021916908373ffffffffffffffffffffffffffffffffffffffff1602179055506040820151816002015560608201518160030190805190602001906104b392919061063a565b506080820151816004015560a08201518160050190805190602001906104da92919061063a565b505050600260009054906101000a900473ffffffffffffffffffffffffffffffffffffffff1673ffffffffffffffffffffffffffffffffffffffff1663ba3d69d7600160009054906101000a900473ffffffffffffffffffffffffffffffffffffffff16600160009054906101000a900473ffffffffffffffffffffffffffffffffffffffff1660405160200161057090610e57565b6040516020818303038152906040526040518463ffffffff1660e01b815260040161059d93929190610ef8565b600060405180830381600087803b1580156105b757600080fd5b505af11580156105cb573d6000803e3d6000fd5b505050507fc4b32d7ff75a51e487f3cbb5d3202f2efecca1f4c2b987e0039c1d3220b48a833385858542604051610606959493929190610fdf565b60405180910390a150505050565b600160009054906101000a900473ffffffffffffffffffffffffffffffffffffffff1681565b82805461064690610c19565b90600052602060002090601f01602090048101928261066857600085556106af565b82601f1061068157805160ff19168380011785556106af565b828001600101855582156106af579182015b828111156106ae578251825591602001919060010190610693565b5b5090506106bc91906106c0565b5090565b5b808211156106d95760008160009055506001016106c1565b5090565b600081519050919050565b600082825260208201905092915050565b6000819050602082019050919050565b600073ffffffffffffffffffffffffffffffffffffffff82169050919050565b600061073482610709565b9050919050565b61074481610729565b82525050565b6000819050919050565b61075d8161074a565b82525050565b600081519050919050565b600082825260208201905092915050565b60005b8381101561079d578082015181840152602081019050610782565b838111156107ac576000848401525b50505050565b6000601f19601f8301169050919050565b60006107ce82610763565b6107d8818561076e565b93506107e881856020860161077f565b6107f1816107b2565b840191505092915050565b600060c083016000830151610814600086018261073b565b506020830151610827602086018261073b565b50604083015161083a6040860182610754565b506060830151848203606086015261085282826107c3565b91505060808301516108676080860182610754565b5060a083015184820360a086015261087f82826107c3565b9150508091505092915050565b600061089883836107fc565b905092915050565b6000602082019050919050565b60006108b8826106dd565b6108c281856106e8565b9350836020820285016108d4856106f9565b8060005b8581101561091057848403895281516108f1858261088c565b94506108fc836108a0565b925060208a019950506001810190506108d8565b50829750879550505050505092915050565b6000602082019050818103600083015261093c81846108ad565b905092915050565b61094d8161074a565b82525050565b60006020820190506109686000830184610944565b92915050565b61097781610729565b82525050565b6000602082019050610992600083018461096e565b92915050565b6000604051905090565b600080fd5b600080fd5b60006109b782610709565b9050919050565b6109c7816109ac565b81146109d257600080fd5b50565b6000813590506109e4816109be565b92915050565b6109f38161074a565b81146109fe57600080fd5b50565b600081359050610a10816109ea565b92915050565b600080fd5b600080fd5b7f4e487b7100000000000000000000000000000000000000000000000000000000600052604160045260246000fd5b610a58826107b2565b810181811067ffffffffffffffff82111715610a7757610a76610a20565b5b80604052505050565b6000610a8a610998565b9050610a968282610a4f565b919050565b600067ffffffffffffffff821115610ab657610ab5610a20565b5b610abf826107b2565b9050602081019050919050565b82818337600083830152505050565b6000610aee610ae984610a9b565b610a80565b905082815260208101848484011115610b0a57610b09610a1b565b5b610b15848285610acc565b509392505050565b600082601f830112610b3257610b31610a16565b5b8135610b42848260208601610adb565b91505092915050565b60008060008060808587031215610b6557610b646109a2565b5b6000610b73878288016109d5565b9450506020610b8487828801610a01565b935050604085013567ffffffffffffffff811115610ba557610ba46109a7565b5b610bb187828801610b1d565b925050606085013567ffffffffffffffff811115610bd257610bd16109a7565b5b610bde87828801610b1d565b91505092959194509250565b7f4e487b7100000000000000000000000000000000000000000000000000000000600052602260045260246000fd5b60006002820490506001821680610c3157607f821691505b60208210811415610c4557610c44610bea565b5b50919050565b7f4e487b7100000000000000000000000000000000000000000000000000000000600052601160045260246000fd5b6000610c858261074a565b9150610c908361074a565b9250827fffffffffffffffffffffffffffffffffffffffffffffffffffffffffffffffff03821115610cc557610cc4610c4b565b5b828201905092915050565b600081905092915050565b7f3000000000000000000000000000000000000000000000000000000000000000600082015250565b6000610d11600183610cd0565b9150610d1c82610cdb565b600182019050919050565b7f3100000000000000000000000000000000000000000000000000000000000000600082015250565b6000610d5d600183610cd0565b9150610d6882610d27565b600182019050919050565b7f2b00000000000000000000000000000000000000000000000000000000000000600082015250565b6000610da9600183610cd0565b9150610db482610d73565b600182019050919050565b7f4e65772050726f706f73616c2043726561746564000000000000000000000000600082015250565b6000610df5601483610cd0565b9150610e0082610dbf565b601482019050919050565b7f436865636b206974206f75740000000000000000000000000000000000000000600082015250565b6000610e41600c83610cd0565b9150610e4c82610e0b565b600c82019050919050565b6000610e6282610d04565b9150610e6d82610d50565b9150610e7882610d9c565b9150610e8382610de8565b9150610e8e82610d9c565b9150610e9982610e34565b9150819050919050565b600081519050919050565b600082825260208201905092915050565b6000610eca82610ea3565b610ed48185610eae565b9350610ee481856020860161077f565b610eed816107b2565b840191505092915050565b6000606082019050610f0d600083018661096e565b610f1a602083018561096e565b8181036040830152610f2c8184610ebf565b9050949350505050565b6000819050919050565b6000610f5b610f56610f5184610709565b610f36565b610709565b9050919050565b6000610f6d82610f40565b9050919050565b6000610f7f82610f62565b9050919050565b610f8f81610f74565b82525050565b600082825260208201905092915050565b6000610fb182610763565b610fbb8185610f95565b9350610fcb81856020860161077f565b610fd4816107b2565b840191505092915050565b600060a082019050610ff4600083018861096e565b6110016020830187610f86565b61100e6040830186610944565b81810360608301526110208185610fa6565b905061102f6080830184610944565b969550505050505056fea264697066735822122082801a74921d67cdd39abfc3cdcf3043ae28b6f7e64b32735ef8a5be833481ae64736f6c634300080a0033",
  "linkReferences": {},
  "deployedLinkReferences": {}
}